{
  "_format": "hh-sol-artifact-1",
  "contractName": "RollupV1",
  "sourceName": "contracts/rollup2/RollupV1.sol",
  "abi": [
    {
      "inputs": [],
      "stateMutability": "nonpayable",
      "type": "constructor"
    },
    {
      "inputs": [
        {
          "internalType": "address",
          "name": "target",
          "type": "address"
        }
      ],
      "name": "AddressEmptyCode",
      "type": "error"
    },
    {
      "inputs": [
        {
          "internalType": "address",
          "name": "account",
          "type": "address"
        }
      ],
      "name": "AddressInsufficientBalance",
      "type": "error"
    },
    {
      "inputs": [],
      "name": "ECDSAInvalidSignature",
      "type": "error"
    },
    {
      "inputs": [
        {
          "internalType": "uint256",
          "name": "length",
          "type": "uint256"
        }
      ],
      "name": "ECDSAInvalidSignatureLength",
      "type": "error"
    },
    {
      "inputs": [
        {
          "internalType": "bytes32",
          "name": "s",
          "type": "bytes32"
        }
      ],
      "name": "ECDSAInvalidSignatureS",
      "type": "error"
    },
    {
      "inputs": [],
      "name": "FailedInnerCall",
      "type": "error"
    },
    {
      "inputs": [],
      "name": "InvalidInitialization",
      "type": "error"
    },
    {
      "inputs": [],
      "name": "NotInitializing",
      "type": "error"
    },
    {
      "inputs": [
        {
          "internalType": "address",
          "name": "owner",
          "type": "address"
        }
      ],
      "name": "OwnableInvalidOwner",
      "type": "error"
    },
    {
      "inputs": [
        {
          "internalType": "address",
          "name": "account",
          "type": "address"
        }
      ],
      "name": "OwnableUnauthorizedAccount",
      "type": "error"
    },
    {
      "inputs": [
        {
          "internalType": "address",
          "name": "token",
          "type": "address"
        }
      ],
      "name": "SafeERC20FailedOperation",
      "type": "error"
    },
    {
      "anonymous": false,
      "inputs": [
        {
          "indexed": true,
          "internalType": "address",
          "name": "token",
          "type": "address"
        },
        {
          "indexed": true,
          "internalType": "bytes32",
          "name": "burn_hash",
          "type": "bytes32"
        },
        {
          "indexed": true,
          "internalType": "address",
          "name": "recipient",
          "type": "address"
        },
        {
          "indexed": false,
          "internalType": "bool",
          "name": "substitute",
          "type": "bool"
        },
        {
          "indexed": false,
          "internalType": "bool",
          "name": "success",
          "type": "bool"
        }
      ],
      "name": "Burned",
      "type": "event"
    },
    {
      "anonymous": false,
      "inputs": [
        {
          "indexed": false,
          "internalType": "uint64",
          "name": "version",
          "type": "uint64"
        }
      ],
      "name": "Initialized",
      "type": "event"
    },
    {
      "anonymous": false,
      "inputs": [
        {
          "indexed": true,
          "internalType": "bytes32",
          "name": "mint_hash",
          "type": "bytes32"
        },
        {
          "indexed": false,
          "internalType": "uint256",
          "name": "value",
          "type": "uint256"
        },
        {
          "indexed": false,
          "internalType": "bytes32",
          "name": "note_kind",
          "type": "bytes32"
        }
      ],
      "name": "MintAdded",
      "type": "event"
    },
    {
      "anonymous": false,
      "inputs": [
        {
          "indexed": true,
          "internalType": "bytes32",
          "name": "hash",
          "type": "bytes32"
        },
        {
          "indexed": false,
          "internalType": "bytes32",
          "name": "value",
          "type": "bytes32"
        },
        {
          "indexed": false,
          "internalType": "bytes32",
          "name": "note_kind",
          "type": "bytes32"
        }
      ],
      "name": "Minted",
      "type": "event"
    },
    {
      "anonymous": false,
      "inputs": [
        {
          "indexed": true,
          "internalType": "address",
          "name": "previousOwner",
          "type": "address"
        },
        {
          "indexed": true,
          "internalType": "address",
          "name": "newOwner",
          "type": "address"
        }
      ],
      "name": "OwnershipTransferred",
      "type": "event"
    },
    {
      "anonymous": false,
      "inputs": [
        {
          "indexed": true,
          "internalType": "address",
          "name": "prover",
          "type": "address"
        }
      ],
      "name": "ProverAdded",
      "type": "event"
    },
    {
      "anonymous": false,
      "inputs": [
        {
          "indexed": true,
          "internalType": "address",
          "name": "prover",
          "type": "address"
        }
      ],
      "name": "ProverRemoved",
      "type": "event"
    },
    {
      "anonymous": false,
      "inputs": [
        {
          "indexed": true,
          "internalType": "uint256",
          "name": "height",
          "type": "uint256"
        },
        {
          "indexed": false,
          "internalType": "bytes32",
          "name": "root",
          "type": "bytes32"
        }
      ],
      "name": "RollupVerified",
      "type": "event"
    },
    {
      "anonymous": false,
      "inputs": [
        {
          "indexed": true,
          "internalType": "bytes32",
          "name": "oldRoot",
          "type": "bytes32"
        },
        {
          "indexed": true,
          "internalType": "bytes32",
          "name": "newRoot",
          "type": "bytes32"
        }
      ],
      "name": "RootHashUpdated",
      "type": "event"
    },
    {
      "anonymous": false,
      "inputs": [
        {
          "indexed": false,
          "internalType": "uint256",
          "name": "index",
          "type": "uint256"
        },
        {
          "indexed": false,
          "internalType": "uint256",
          "name": "validFrom",
          "type": "uint256"
        }
      ],
      "name": "ValidatorSetAdded",
      "type": "event"
    },
    {
      "anonymous": false,
      "inputs": [
        {
          "indexed": false,
          "internalType": "bytes32",
          "name": "verificationKey",
          "type": "bytes32"
        },
        {
          "indexed": false,
          "internalType": "address",
          "name": "zkVerifierAddress",
          "type": "address"
        },
        {
          "indexed": false,
          "internalType": "uint32",
          "name": "messages_length",
          "type": "uint32"
        }
      ],
      "name": "VerifierAdded",
      "type": "event"
    },
    {
      "anonymous": false,
      "inputs": [
        {
          "indexed": false,
          "internalType": "bytes32",
          "name": "verificationKey",
          "type": "bytes32"
        },
        {
          "indexed": false,
          "internalType": "address",
          "name": "zkVerifierAddress",
          "type": "address"
        }
      ],
      "name": "VerifierRemoved",
      "type": "event"
    },
    {
      "inputs": [],
      "name": "DOMAIN_SEPARATOR",
      "outputs": [
        {
          "internalType": "bytes32",
          "name": "",
          "type": "bytes32"
        }
      ],
      "stateMutability": "view",
      "type": "function"
    },
    {
      "inputs": [
        {
          "internalType": "address",
          "name": "burnSubstitutor",
          "type": "address"
        }
      ],
      "name": "addBurnSubstitutor",
      "outputs": [],
      "stateMutability": "nonpayable",
      "type": "function"
    },
    {
      "inputs": [
        {
          "internalType": "address",
          "name": "prover",
          "type": "address"
        }
      ],
      "name": "addProver",
      "outputs": [],
      "stateMutability": "nonpayable",
      "type": "function"
    },
    {
      "inputs": [
        {
          "internalType": "bytes32",
          "name": "noteKind",
          "type": "bytes32"
        },
        {
          "internalType": "address",
          "name": "tokenAddress",
          "type": "address"
        }
      ],
      "name": "addToken",
      "outputs": [],
      "stateMutability": "nonpayable",
      "type": "function"
    },
    {
      "inputs": [
        {
          "internalType": "bytes32",
          "name": "verificationKeyHash",
          "type": "bytes32"
        },
        {
          "internalType": "address",
          "name": "verifierAddress",
          "type": "address"
        },
        {
          "internalType": "uint32",
          "name": "messages_length",
          "type": "uint32"
        }
      ],
      "name": "addZkVerifier",
      "outputs": [],
      "stateMutability": "nonpayable",
      "type": "function"
    },
    {
      "inputs": [],
      "name": "blockHeight",
      "outputs": [
        {
          "internalType": "uint256",
          "name": "",
          "type": "uint256"
        }
      ],
      "stateMutability": "view",
      "type": "function"
    },
    {
      "inputs": [],
      "name": "currentRootHash",
      "outputs": [
        {
          "internalType": "bytes32",
          "name": "",
          "type": "bytes32"
        }
      ],
      "stateMutability": "view",
      "type": "function"
    },
    {
      "inputs": [
        {
          "internalType": "bytes32",
          "name": "newRoot",
          "type": "bytes32"
        },
        {
          "internalType": "uint256",
          "name": "height",
          "type": "uint256"
        },
        {
          "internalType": "bytes32",
          "name": "otherHashFromBlockHash",
          "type": "bytes32"
        }
      ],
      "name": "debugGetIntermediateHashes",
      "outputs": [
        {
          "internalType": "bytes32",
          "name": "proposalHash",
          "type": "bytes32"
        },
        {
          "internalType": "bytes32",
          "name": "acceptMsg",
          "type": "bytes32"
        },
        {
          "internalType": "bytes32",
          "name": "sigMsg",
          "type": "bytes32"
        }
      ],
      "stateMutability": "pure",
      "type": "function"
    },
    {
      "inputs": [
        {
          "internalType": "bytes32",
          "name": "acceptMsg",
          "type": "bytes32"
        }
      ],
      "name": "debugGetPackedBytes",
      "outputs": [
        {
          "internalType": "bytes",
          "name": "",
          "type": "bytes"
        }
      ],
      "stateMutability": "pure",
      "type": "function"
    },
    {
      "inputs": [
        {
          "internalType": "bytes32",
          "name": "newRoot",
          "type": "bytes32"
        },
        {
          "internalType": "uint256",
          "name": "height",
          "type": "uint256"
        },
        {
          "internalType": "bytes32",
          "name": "otherHashFromBlockHash",
          "type": "bytes32"
        }
      ],
      "name": "debugGetSignatureMessageHash",
      "outputs": [
        {
          "internalType": "bytes32",
          "name": "",
          "type": "bytes32"
        }
      ],
      "stateMutability": "pure",
      "type": "function"
    },
    {
      "inputs": [
        {
          "internalType": "bytes32",
          "name": "hash",
          "type": "bytes32"
        }
      ],
      "name": "getMint",
      "outputs": [
        {
          "components": [
            {
              "internalType": "bytes32",
              "name": "note_kind",
              "type": "bytes32"
            },
            {
              "internalType": "uint256",
              "name": "amount",
              "type": "uint256"
            },
            {
              "internalType": "bool",
              "name": "spent",
              "type": "bool"
            }
          ],
          "internalType": "struct Mint",
          "name": "",
          "type": "tuple"
        }
      ],
      "stateMutability": "view",
      "type": "function"
    },
    {
      "inputs": [
        {
          "internalType": "uint256",
          "name": "from",
          "type": "uint256"
        }
      ],
      "name": "getValidatorSets",
      "outputs": [
        {
          "components": [
            {
              "internalType": "address[]",
              "name": "validators",
              "type": "address[]"
            },
            {
              "internalType": "uint256",
              "name": "validFrom",
              "type": "uint256"
            }
          ],
          "internalType": "struct PublicValidatorSet[]",
          "name": "",
          "type": "tuple[]"
        }
      ],
      "stateMutability": "view",
      "type": "function"
    },
    {
      "inputs": [
        {
          "internalType": "bytes32",
          "name": "verificationKeyHash",
          "type": "bytes32"
        }
      ],
      "name": "getZkVerifier",
      "outputs": [
        {
          "internalType": "address",
          "name": "",
          "type": "address"
        },
        {
          "internalType": "uint32",
          "name": "",
          "type": "uint32"
        }
      ],
      "stateMutability": "view",
      "type": "function"
    },
    {
      "inputs": [
        {
          "internalType": "address",
          "name": "owner",
          "type": "address"
        },
        {
          "internalType": "address",
          "name": "_usdcAddress",
          "type": "address"
        },
        {
          "internalType": "address",
          "name": "_verifierAddress",
          "type": "address"
        },
        {
          "internalType": "address",
          "name": "prover",
          "type": "address"
        },
        {
          "internalType": "address[]",
          "name": "initialValidators",
          "type": "address[]"
        },
        {
          "internalType": "bytes32",
          "name": "verifierKeyHash",
          "type": "bytes32"
        }
      ],
      "name": "initialize",
      "outputs": [],
      "stateMutability": "nonpayable",
      "type": "function"
    },
    {
      "inputs": [
        {
          "internalType": "bytes32",
          "name": "mint_hash",
          "type": "bytes32"
        },
        {
          "internalType": "bytes32",
          "name": "value",
          "type": "bytes32"
        },
        {
          "internalType": "bytes32",
          "name": "note_kind",
          "type": "bytes32"
        }
      ],
      "name": "mint",
      "outputs": [],
      "stateMutability": "nonpayable",
      "type": "function"
    },
    {
      "inputs": [
        {
          "internalType": "bytes32",
          "name": "mint_hash",
          "type": "bytes32"
        },
        {
          "internalType": "bytes32",
          "name": "value",
          "type": "bytes32"
        },
        {
          "internalType": "bytes32",
          "name": "note_kind",
          "type": "bytes32"
        },
        {
          "internalType": "address",
          "name": "from",
          "type": "address"
        },
        {
          "internalType": "uint256",
          "name": "validAfter",
          "type": "uint256"
        },
        {
          "internalType": "uint256",
          "name": "validBefore",
          "type": "uint256"
        },
        {
          "internalType": "bytes32",
          "name": "nonce",
          "type": "bytes32"
        },
        {
          "internalType": "uint256",
          "name": "v",
          "type": "uint256"
        },
        {
          "internalType": "bytes32",
          "name": "r",
          "type": "bytes32"
        },
        {
          "internalType": "bytes32",
          "name": "s",
          "type": "bytes32"
        },
        {
          "internalType": "uint256",
          "name": "v2",
          "type": "uint256"
        },
        {
          "internalType": "bytes32",
          "name": "r2",
          "type": "bytes32"
        },
        {
          "internalType": "bytes32",
          "name": "s2",
          "type": "bytes32"
        }
      ],
      "name": "mintWithAuthorization",
      "outputs": [],
      "stateMutability": "nonpayable",
      "type": "function"
    },
    {
      "inputs": [
        {
          "internalType": "bytes32",
          "name": "",
          "type": "bytes32"
        }
      ],
      "name": "mints",
      "outputs": [
        {
          "internalType": "bytes32",
          "name": "note_kind",
          "type": "bytes32"
        },
        {
          "internalType": "uint256",
          "name": "amount",
          "type": "uint256"
        },
        {
          "internalType": "bool",
          "name": "spent",
          "type": "bool"
        }
      ],
      "stateMutability": "view",
      "type": "function"
    },
    {
      "inputs": [
        {
          "internalType": "bytes32",
          "name": "noteKind",
          "type": "bytes32"
        }
      ],
      "name": "noteKindTokenAddress",
      "outputs": [
        {
          "internalType": "address",
          "name": "",
          "type": "address"
        }
      ],
      "stateMutability": "view",
      "type": "function"
    },
    {
      "inputs": [],
      "name": "owner",
      "outputs": [
        {
          "internalType": "address",
          "name": "",
          "type": "address"
        }
      ],
      "stateMutability": "view",
      "type": "function"
    },
    {
      "inputs": [
        {
          "internalType": "address",
          "name": "burnSubstitutor",
          "type": "address"
        }
      ],
      "name": "removeBurnSubstitutor",
      "outputs": [],
      "stateMutability": "nonpayable",
      "type": "function"
    },
    {
      "inputs": [
        {
          "internalType": "address",
          "name": "prover",
          "type": "address"
        }
      ],
      "name": "removeProver",
      "outputs": [],
      "stateMutability": "nonpayable",
      "type": "function"
    },
    {
      "inputs": [
        {
          "internalType": "bytes32",
          "name": "verificationKeyHash",
          "type": "bytes32"
        }
      ],
      "name": "removeZkVerifier",
      "outputs": [],
      "stateMutability": "nonpayable",
      "type": "function"
    },
    {
      "inputs": [],
      "name": "renounceOwnership",
      "outputs": [],
      "stateMutability": "nonpayable",
      "type": "function"
    },
    {
      "inputs": [],
      "name": "rootHash",
      "outputs": [
        {
          "internalType": "bytes32",
          "name": "",
          "type": "bytes32"
        }
      ],
      "stateMutability": "view",
      "type": "function"
    },
    {
      "inputs": [
        {
          "internalType": "bytes32",
          "name": "newRoot",
          "type": "bytes32"
        }
      ],
      "name": "setRoot",
      "outputs": [],
      "stateMutability": "nonpayable",
      "type": "function"
    },
    {
      "inputs": [
        {
          "internalType": "uint256",
          "name": "validFrom",
          "type": "uint256"
        },
        {
          "internalType": "address[]",
          "name": "validators",
          "type": "address[]"
        }
      ],
      "name": "setValidators",
      "outputs": [],
      "stateMutability": "nonpayable",
      "type": "function"
    },
    {
      "inputs": [
        {
          "internalType": "address",
          "name": "burnAddress",
          "type": "address"
        },
        {
          "internalType": "bytes32",
          "name": "note_kind",
          "type": "bytes32"
        },
        {
          "internalType": "bytes32",
          "name": "hash",
          "type": "bytes32"
        },
        {
          "internalType": "uint256",
          "name": "amount",
          "type": "uint256"
        },
        {
          "internalType": "uint256",
          "name": "burnBlockHeight",
          "type": "uint256"
        }
      ],
      "name": "substituteBurn",
      "outputs": [],
      "stateMutability": "nonpayable",
      "type": "function"
    },
    {
      "inputs": [
        {
          "internalType": "bytes32",
          "name": "",
          "type": "bytes32"
        }
      ],
      "name": "substitutedBurns",
      "outputs": [
        {
          "internalType": "address",
          "name": "",
          "type": "address"
        }
      ],
      "stateMutability": "view",
      "type": "function"
    },
    {
      "inputs": [
        {
          "internalType": "address",
          "name": "newOwner",
          "type": "address"
        }
      ],
      "name": "transferOwnership",
      "outputs": [],
      "stateMutability": "nonpayable",
      "type": "function"
    },
    {
      "inputs": [],
      "name": "usdc",
      "outputs": [
        {
          "internalType": "contract IUSDC",
          "name": "",
          "type": "address"
        }
      ],
      "stateMutability": "view",
      "type": "function"
    },
    {
      "inputs": [
        {
          "internalType": "uint256",
          "name": "height",
          "type": "uint256"
        },
        {
          "internalType": "bytes32",
          "name": "verificationKeyHash",
          "type": "bytes32"
        },
        {
          "internalType": "bytes",
          "name": "aggrProof",
          "type": "bytes"
        },
        {
          "internalType": "bytes32[]",
          "name": "publicInputs",
          "type": "bytes32[]"
        },
        {
          "internalType": "bytes32",
          "name": "otherHashFromBlockHash",
          "type": "bytes32"
        },
        {
          "components": [
            {
              "internalType": "bytes32",
              "name": "r",
              "type": "bytes32"
            },
            {
              "internalType": "bytes32",
              "name": "s",
              "type": "bytes32"
            },
            {
              "internalType": "uint256",
              "name": "v",
              "type": "uint256"
            }
          ],
          "internalType": "struct Signature[]",
          "name": "signatures",
          "type": "tuple[]"
        }
      ],
      "name": "verifyRollup",
      "outputs": [],
      "stateMutability": "nonpayable",
      "type": "function"
    },
    {
      "inputs": [],
      "name": "version",
      "outputs": [
        {
          "internalType": "uint8",
          "name": "",
          "type": "uint8"
        }
      ],
      "stateMutability": "view",
      "type": "function"
    },
    {
      "inputs": [
        {
          "internalType": "address",
          "name": "burn_address",
          "type": "address"
        },
        {
          "internalType": "bytes32",
          "name": "note_kind",
          "type": "bytes32"
        },
        {
          "internalType": "bytes32",
          "name": "hash",
          "type": "bytes32"
        },
        {
          "internalType": "uint256",
          "name": "amount",
          "type": "uint256"
        },
        {
          "internalType": "uint256",
          "name": "burnBlockHeight",
          "type": "uint256"
        }
      ],
      "name": "wasBurnSubstituted",
      "outputs": [
        {
          "internalType": "bool",
          "name": "",
          "type": "bool"
        }
      ],
      "stateMutability": "view",
      "type": "function"
    },
    {
      "inputs": [
        {
          "internalType": "uint256",
          "name": "",
          "type": "uint256"
        }
      ],
      "name": "zkVerifierKeys",
      "outputs": [
        {
          "internalType": "bytes32",
          "name": "",
          "type": "bytes32"
        }
      ],
      "stateMutability": "view",
      "type": "function"
    },
    {
      "inputs": [
        {
          "internalType": "bytes32",
          "name": "",
          "type": "bytes32"
        }
      ],
      "name": "zkVerifiers",
      "outputs": [
        {
          "internalType": "contract IVerifier",
          "name": "verifier",
          "type": "address"
        },
        {
          "internalType": "uint32",
          "name": "messages_length",
          "type": "uint32"
        },
        {
          "internalType": "bool",
          "name": "enabled",
          "type": "bool"
        }
      ],
      "stateMutability": "view",
      "type": "function"
    }
  ],
  "bytecode": "0x608080604052346100b9577ff0c57e16840df040f15088dc2f81fe391c3923bec73e23a9662efc9c229c6a009081549060ff8260401c166100aa57506001600160401b036002600160401b031982821601610065575b6040516131ba9081620000bf8239f35b6001600160401b031990911681179091556040519081527fc7f505b2f371ae2175ee4913f4499e1f2633a7b5936321eed1cdaeb6115181d290602090a1388080610055565b63f92ee8a960e01b8152600490fd5b600080fdfe6080604052600436101561001257600080fd5b6000803560e01c80630d647a9a1461245e5780631d49e457146123fc5780631d80009a1461188157806326e31a941461227e5780632a2bc73a1461224b5780633644e5151461223057806339b7933d146121f55780633e413bee146121cc5780634eeb381e146120f257806354fd4d50146120d257806356dc63cb1461208b5780635d5fa0d1146120315780636b2bd2ec14611ff8578063715018a614611f8e57806387ca08e514611a025780638da5cb5b146119cc5780639776aacf1461191e578063a2ce9c1f1461189f578063a91eebf514611881578063ab1c290114611661578063b2142b5014611620578063b571d3dd14611566578063b72e88cb14611522578063b8cdbd2714610de1578063bb254e7a14610dbf578063c1b1535914610d8c578063c34975bb14610d3c578063d82cbdd914610bb0578063dab5f34014610b65578063e795594d146107e1578063eae4475a146104bd578063ef0feff9146102c2578063f2fde38b14610295578063f44ff712146102775763f9038cf31461019e57600080fd5b34610274576101d66101af366125e5565b60409392919351928391856020840194856040919493926060820195825260208201520152565b03916101ea601f199384810183528261280d565b51902091600181018091116102605760609350604051602081019182528360408201526040815261021a816127a1565b51902090610226613002565b9061024a604051918261023e86602083019687613022565b0390810183528261280d565b5190209060405192835260208301526040820152f35b634e487b7160e01b84526011600452602484fd5b80fd5b50346102745780600319360112610274576020600454604051908152f35b5034610274576020366003190112610274576102bf6102b26124ef565b6102ba6125ff565b612638565b80f35b503461027457602090816003193601126102745790600435600a546102e78282612794565b916102f1836130ca565b926102ff604051948561280d565b80845261030e601f19916130ca565b01855b818110610490575050805b8281106103d75750505060405192828493840190808552835180925260408501928160408460051b880101950193815b8483106103595787870388f35b9193959092949650603f198882030183528487516040830190805191604085528251809152836060860193019086905b8082106103b4575050509060019383808094015191015298019301930190928796959394929461034c565b82516001600160a01b031685528a95948501949092019160019190910190610389565b6103e481969495966130e1565b5060018091019060026103f6846130e1565b5001549060405192610407846127bc565b60405191828b83549182815201928a528b8a20918a915b8d818410610472575050505050918161044161046996959361046395038261280d565b8252898201526104518584612794565b9061045c828a61311c565b528761311c565b5061276f565b9493929461031c565b84546001600160a01b0316865290940193928101929181019161041e565b9480809795966040516104a2816127bc565b60608152878382015282828a01015201905095949395610311565b5034610274576101a0366003190112610274576004356024356044356104e1612520565b60843560a4359160c4359086885260209360068552600160408a20015461079c5760405192858401927fc749520baeb387dcc1f93bdea47980df7e7750f05367ca40ad8204ffaded32ad845289604086015288606086015287608086015260018060a01b03809116938460a08701528660c08701528360e0870152610100838188015286526101208601956001600160401b039681811088821117610788576105db879385936105e49360405251902061059961282e565b90604051908d82019261190160f01b845260228301526042820152604281526105c1816127d7565b5190206101843590610164359060ff610144351690612eed565b90929192612f7d565b160361074357908a9392918885526008885260408520541691610608831515612d73565b823b1561073f576040519687946377aadf6360e11b865260048601523060248601528a60448601526064850152608484015260a483015260ff60e4351660c4830152818361010492833560e4840152610124938435908401525af18015610734576106ec575b5050916040917fc4adcac6a89d730f3a6da5d846bba3d858a8fc5884e0f80940a3a3b96a4ae6f1936106e084516106a4816127a1565b8381526002838201868152878301908b82528a8c5260068652888c209351845551600184015551151591019060ff801983541691151516179055565b8351928352820152a280f35b81969296116107205760405293817fc4adcac6a89d730f3a6da5d846bba3d858a8fc5884e0f80940a3a3b96a4ae6f161066e565b634e487b7160e01b82526041600452602482fd5b6040513d89823e3d90fd5b8480fd5b60405162461bcd60e51b815260048101889052601860248201527f526f6c6c757056313a20496e76616c6964207369676e657200000000000000006044820152606490fd5b634e487b7160e01b8e52604160045260248efd5b60405162461bcd60e51b815260206004820152601d60248201527f526f6c6c757056313a204d696e7420616c7265616479206578697374730000006044820152606490fd5b50346102745760403660031901126102745760246004356001600160401b03823581811161073f576108179036906004016125b5565b6108229491946125ff565b600a549485158015610b43575b15610ac55784158015610a9c575b15610a3257600160401b90818710156109f95760019182880180600a55610863896130e1565b50508811610a1f578660026108778a6130e1565b50015582610884896130e1565b5001958411610a0c5783116109f95784548386558084106109d1575b508094885260209485892090838a5b8681106109b85750505050875b8381106108f657887ffd204c7043da2bcc4dc261ed00edac3bb5e2b8c5c60c7535c4d17144759fc73260408a8a8a8351928352820152a180f35b6108ff886130e1565b506001600160a01b03908161091d6109188589886128fb565b613130565b168b52875260ff60408b20541661096957906109649161093c8a6130e1565b509061094c6109188489886128fb565b168b52875260408a20805460ff19168517905561276f565b6108bc565b60405162461bcd60e51b8152600481018890526022818801527f526f6c6c757056313a2056616c696461746f7220616c72656164792065786973604482015261747360f01b6064820152608490fd5b886109c284613130565b930192818501550184906108af565b858952828460208b2092830192015b8281106109ee5750506108a0565b8a81550183906109e0565b634e487b7160e01b885260416004528388fd5b634e487b7160e01b895260416004528489fd5b634e487b7160e01b895260116004528489fd5b60405162461bcd60e51b815260206004820152603d818501527f526f6c6c757056313a2076616c696446726f6d2063616e6e6f74206265206d6f60448201527f7265207468616e203330206461797320696e20746865206675747572650000006064820152608490fd5b5062278d004301804311610ab25785111561083d565b634e487b7160e01b885260116004528388fd5b60405162461bcd60e51b815260206004820152604b818501527f526f6c6c757056313a204e65772076616c696461746f7220736574206d75737460448201527f206861766520612076616c696446726f6d2067726561746572207468616e207460648201526a1a19481b185cdd081cd95d60aa1b608482015260a490fd5b506000198601868111610ab2576002610b5c87926130e1565b5001541061082f565b503461027457602036600319011261027457600435610b826125ff565b600554816005557f2c5e454ab10a3bb8f13831cd35da5f0dbef2c5ac1c80c171157ab07519e097488380a380f35b503461027457606036600319011261027457600435610bcd61250a565b906044359063ffffffff821680830361073f57610be86125ff565b6001600160a01b038416938415610ce9573b15610c94577fdb2a4be964bb3f5ba0504bccdbceaa478be8d73af2238cd9be0ba0c8efc107ca93606093838752600160205260ff604088205460c01c1615610c86575b83875260016020526040872090815483600160c01b9263ffffffff60a01b9060a01b169166ffffffffffffff60c81b16171717905560405192835260208301526040820152a180f35b610c8f846126ac565b610c3d565b60405162461bcd60e51b815260206004820152602760248201527f526f6c6c757056313a205a4b207665726966696572206973206e6f74206120636044820152661bdb9d1c9858dd60ca1b6064820152608490fd5b60405162461bcd60e51b815260206004820152602560248201527f526f6c6c757056313a20496e76616c6964207a6b207665726966696572206164604482015264647265737360d81b6064820152608490fd5b503461027457602036600319011261027457604060609160043581526001602052205460ff6040519160018060a01b038116835263ffffffff8160a01c16602084015260c01c1615156040820152f35b503461027457602036600319011261027457602090600435815260078252604060018060a01b0391205416604051908152f35b5034610274576020610dd9610dd3366125e5565b9161304d565b604051908152f35b50346102745760c0366003190112610274576001600160401b03806044351161151e5736602360443501121561151e5780604435600401351161151e573660246044356004013560443501011161151e5760643581811161151657610e4a9036906004016125b5565b918060a4351161151a5736602360a43501121561151a5760a435600401351161151657366024606060a435600401350260a43501011161151657338352600960205260016040842054036114da576024358352600160205260ff604084205460c01c161561148b5760243583526001602052600363ffffffff604085205460a01c160163ffffffff81116102605763ffffffff168203611438578115611424578160011015611424578160021015611424576005548135036113cf57600b54600181018111610260576001015b600a548110156113c857610f2a816130e1565b50600260043591015411610f4a5780610f4591600b5561276f565b610f17565b50905b610f58600b546130e1565b5060a43560040135156113835760018101548060011b90808204600214901517156112045760039004600181018091116112045760a435600401351061131857610fab608435600435602086013561304d565b9084805b60a43560040135821061121857505050506024358352600160205263ffffffff604084205460a01c16600390810180821161120457905b8181106111f05750506024358352600160205260018060a01b036040842054169060405191633a94343960e21b835260406004840152604435600401356044840152604435600401356024604435016064850137600460443501358381016064908101879052601f909101601f191684018481036060016024860152908101839052906001600160fb1b0383116111ec5783608481809460209660051b90818a85830137010301915afa9081156111e15783916111b2575b501561115e57602081013560055560045460043511156110f357600435600455602060405191013581527f401f796450733fd22827ddc018ca37051459a8035c4026f533c294797bb8a49e602060043592a280f35b60405162461bcd60e51b815260206004820152603760248201527f526f6c6c757056313a204e657720626c6f636b20686569676874206d7573742060448201527f62652067726561746572207468616e2063757272656e740000000000000000006064820152608490fd5b60405162461bcd60e51b815260206004820152602660248201527f526f6c6c757056313a205a4b2070726f6f6620766572696669636174696f6e2060448201526519985a5b195960d21b6064820152608490fd5b6111d4915060203d6020116111da575b6111cc818361280d565b81019061290b565b3861109e565b503d6111c2565b6040513d85823e3d90fd5b8580fd5b6111ff90838560043592612923565b610fe6565b634e487b7160e01b85526011600452602485fd5b611249906112406060840260a4350160448101359060ff606460248301359201351688612eed565b90939193612f7d565b60018060a01b0380831691828a5285602052600160ff60408c2054161515036112c7571610156112835761127d909161276f565b90610faf565b606460405162461bcd60e51b815260206004820152602060248201527f526f6c6c757056313a205369676e65727320617265206e6f7420736f727465646044820152fd5b60405162461bcd60e51b815260206004820152602360248201527f526f6c6c757056313a205369676e6572206973206e6f7420612076616c6964616044820152623a37b960e91b6064820152608490fd5b60405162461bcd60e51b815260206004820152603f60248201527f526f6c6c757056313a204e6f7420656e6f756768207369676e6174757265732060448201527f66726f6d2076616c696461746f727320746f2076657269667920626c6f636b006064820152608490fd5b60405162461bcd60e51b815260206004820152601760248201527f526f6c6c757056313a204e6f207369676e6174757265730000000000000000006044820152606490fd5b5090610f4d565b60405162461bcd60e51b815260206004820152602760248201527f526f6c6c757056313a20526f6f74206861736820766572696669636174696f6e6044820152660819985a5b195960ca1b6064820152608490fd5b634e487b7160e01b83526032600452602483fd5b60405162461bcd60e51b815260206004820152602560248201527f526f6c6c757056313a20496e76616c6964207075626c6963496e70757473206c6044820152640cadccee8d60db1b6064820152608490fd5b60405162461bcd60e51b815260206004820152602160248201527f526f6c6c757056313a205a4b207665726966696572206e6f7420616c6c6f77656044820152601960fa1b6064820152608490fd5b60405162461bcd60e51b81526020600482015260146024820152732cb7ba9030b932903737ba103090383937bb32b960611b6044820152606490fd5b8280fd5b8380fd5b5080fd5b50346102745760203660031901126102745761153c6124ef565b6115446125ff565b6001600160a01b03168152600c60205260408120805460ff1916600117905580f35b5034610274576020366003190112610274576115806124ef565b6115886125ff565b6001600160a01b031680825260096020526040822054600019016115db5780825260096020528160408120557fd64d11086d859b73cf85a91ca06cbc484398acabe3d9a1b26d4366dff377d9858280a280f35b60405162461bcd60e51b815260206004820152601760248201527f41646472657373206973206e6f7420612070726f7665720000000000000000006044820152606490fd5b50346102745760203660031901126102745761163a6124ef565b6116426125ff565b6001600160a01b03168152600c60205260408120805460ff1916905580f35b50346102745761167036612536565b909391338652602094600c8652600160ff60408920541615150361182b5761169b8382878786612c23565b80885260078752604088205490956001600160a01b0394909185166117db576004541015611785578752600886527f25bab1ec4b6635a8e0740834e52ce1aee362e9c38447738aa7b75b7e06275b07604061171485828b20541693611701851515612d73565b61170d81303388612dcf565b8785612cf0565b9481519560018752159687158a8801521694a4611748578252600790526040812080546001600160a01b0319163317905580f35b60405162461bcd60e51b8152600481018390526015602482015274149bdb1b1d5c158c4e88109d5c9b8819985a5b1959605a1b6044820152606490fd5b60405162461bcd60e51b815260048101889052602860248201527f526f6c6c757056313a20426c6f636b2068656967687420616c7265616479207260448201526706f6c6c65642075760c41b6064820152608490fd5b60405162461bcd60e51b815260048101899052602260248201527f526f6c6c757056313a204275726e20616c726561647920737562737469747574604482015261195960f21b6064820152608490fd5b60405162461bcd60e51b815260048101879052602860248201527f526f6c6c757056313a20596f7520617265206e6f742061206275726e2073756260448201526739ba34ba3aba37b960c11b6064820152608490fd5b50346102745780600319360112610274576020600554604051908152f35b5034610274576020366003190112610274576040816060928280516118c3816127a1565b828152826020820152015260043581526006602052206040516118e5816127a1565b815491828252604060ff600260018401549360208601948552015416920191151582526040519283525160208301525115156040820152f35b50346102745760403660031901126102745760043561193b61250a565b906119446125ff565b808352600860205260408320546001600160a01b039190821661198757835260086020526040832091166bffffffffffffffffffffffff60a01b82541617905580f35b60405162461bcd60e51b815260206004820152601e60248201527f526f6c6c757056313a20546f6b656e20616c72656164792065786973747300006044820152606490fd5b5034610274578060031936011261027457600080516020613145833981519152546040516001600160a01b039091168152602090f35b50346102745760c036600319011261027457611a1c6124ef565b611a2461250a565b90604435906001600160a01b038216820361151a57611a41612520565b6084356001600160401b0381116111ec57611a609036906004016125b5565b9160008051602061316583398151915254946001600160401b0386161580611f80575b60016001600160401b038816149081611f76575b159081611f6d575b50611f5b5760016001600160401b03198716176000805160206131658339815191525560ff8660401c1615611f2e575b875460ff19166001178855611ae26126e8565b611aea6126e8565b611af385612638565b600380546001600160a01b0319166001600160a01b038981169190911790915560a435808a52600160205260408a2080546001600160c81b0319169390921692909217638000000f60a11b179055611b4a906126ac565b6001600160a01b0316865260096020526040862060019055600a549182158015611f0d575b15611e8e57600160401b831015611e7a576001830180600a55611b91846130e1565b50508311611e6657866002611ba5856130e1565b500155611bb1836130e1565b506001600160401b038211611e5257600160401b8211611e52576001810154826001830155808310611e28575b5060010187526020872082885b838110611e0d57505050865b818110611d4857505050907ffd204c7043da2bcc4dc261ed00edac3bb5e2b8c5c60c7535c4d17144759fc732604060ff94938151908152876020820152a1600554937f0577b5b4aa3eaba75b2a919d5d7c63b7258aa507d38e346bf2ff1d48790379ff80600555604051957f2c5e454ab10a3bb8f13831cd35da5f0dbef2c5ac1c80c171157ab07519e097488880a37e0200000000000000893c499c542cef5e3811e1192ce70d8cc03d5c33590000865260086020908152604080882080546001600160a01b0319166001600160a01b03948516179055929091168652600c9052808520805484191660011790551c1615611cf0575080f35b60207fc7f505b2f371ae2175ee4913f4499e1f2633a7b5936321eed1cdaeb6115181d29168ff00000000000000001960008051602061316583398151915254166000805160206131658339815191525560018152a180f35b611d51846130e1565b506001600160a01b03611d686109188486886128fb565b16895260205260ff604089205416611dbd57611db890611d87856130e1565b506001600160a01b03611d9e6109188487896128fb565b168a5260205260408920805460ff1916600117905561276f565b611bf7565b60405162461bcd60e51b815260206004820152602260248201527f526f6c6c757056313a2056616c696461746f7220616c72656164792065786973604482015261747360f01b6064820152608490fd5b6001906020611e1b84613130565b9301928185015501611beb565b60018201895260208920908382015b8183018110611e47575050611bde565b8a8155600101611e37565b634e487b7160e01b88526041600452602488fd5b634e487b7160e01b87526011600452602487fd5b634e487b7160e01b87526041600452602487fd5b60405162461bcd60e51b815260206004820152604b60248201527f526f6c6c757056313a204e65772076616c696461746f7220736574206d75737460448201527f206861766520612076616c696446726f6d2067726561746572207468616e207460648201526a1a19481b185cdd081cd95d60aa1b608482015260a490fd5b5082600019810111611e6657611f2660001984016130e1565b505086611b6f565b68ffffffffffffffffff198616680100000000000000011760008051602061316583398151915255611acf565b60405163f92ee8a960e01b8152600490fd5b90501538611a9f565b303b159150611a97565b5060ff8660401c1615611a83565b5034610274578060031936011261027457611fa76125ff565b60008051602061314583398151915280546001600160a01b0319811690915581906001600160a01b03167f8be0079c531659141344cd1fd0a4f28419497f9722a3daafe3b4186f6b6457e08280a380f35b5034610274576020366003190112610274576004359060025482101561027457602061202383612568565b90546040519160031b1c8152f35b50346102745760203660031901126102745760408091600435808252600160205261206460ff8484205460c01c16612717565b81526001602052205463ffffffff82519160018060a01b038116835260a01c166020820152f35b5034610274576020366003190112610274576040606091600435815260066020522080549060ff600260018301549201541690604051928352602083015215156040820152f35b503461027457806003193601126102745760ff6020915416604051908152f35b5034610274576060366003190112610274576004356024356044358284526006602052600160408520015461079c577fc4adcac6a89d730f3a6da5d846bba3d858a8fc5884e0f80940a3a3b96a4ae6f19181604092865260086020526121728260018060a01b038589205416612169811515612d73565b30903390612dcf565b6121be8351612180816127a1565b828152600260208201858152868301908a8252898b526006602052878b209351845551600184015551151591019060ff801983541691151516179055565b82519182526020820152a280f35b50346102745780600319360112610274576003546040516001600160a01b039091168152602090f35b50346102745760209061221361220a36612536565b93909291612c23565b815260078252604060018060a01b03912054161515604051908152f35b50346102745780600319360112610274576020610dd961282e565b503461027457602036600319011261027457602090600435815260088252604060018060a01b0391205416604051908152f35b50346102745760203660031901126102745760043561229b6125ff565b80825260016020526122b660ff604084205460c01c16612717565b8082526001602052604082208054908390556002805492916001600160a01b031690845b848110612316575b857fa67e94ae6f2b34c76ff45db881989225caa876cbe2d8215c01650a104557573d6040868682519182526020820152a180f35b8361232082612568565b919054600392831b1c1461233d57506123389061276f565b6122da565b92939490600019918281019081116123e85761236a61235e61238192612568565b905490871b1c92612568565b819391549060031b91821b91600019901b19161790565b9055815480156123d45791817fa67e94ae6f2b34c76ff45db881989225caa876cbe2d8215c01650a104557573d9694926040969401926123c084612568565b81939154921b1b19169055559091386122e2565b634e487b7160e01b87526031600452602487fd5b634e487b7160e01b88526011600452602488fd5b5034610274576020366003190112610274576124166124ef565b61241e6125ff565b6001600160a01b0316808252600960205260408220600190557fef1fa0a4d797341645c201a742cf59be633da0589e0e3cda511cfc90cd0396848280a280f35b5034610274576020366003190112610274576124c3604061247d613002565b815190601f8261249560208201936004359085613022565b03916124a882199384810186528561280d565b845195869460208652518092816020880152878701906124cc565b01168101030190f35b60005b8381106124df5750506000910152565b81810151838201526020016124cf565b600435906001600160a01b038216820361250557565b600080fd5b602435906001600160a01b038216820361250557565b606435906001600160a01b038216820361250557565b60a0906003190112612505576004356001600160a01b0381168103612505579060243590604435906064359060843590565b60025481101561259f5760026000527f405787fa12a823e0f2b7631cc41b3ba8828b3321ca811111fa75cd3aa3bb5ace0190600090565b634e487b7160e01b600052603260045260246000fd5b9181601f84011215612505578235916001600160401b038311612505576020808501948460051b01011161250557565b606090600319011261250557600435906024359060443590565b600080516020613145833981519152546001600160a01b0316330361262057565b60405163118cdaa760e01b8152336004820152602490fd5b6001600160a01b039081169081156126935760008051602061314583398151915280546001600160a01b031981168417909155167f8be0079c531659141344cd1fd0a4f28419497f9722a3daafe3b4186f6b6457e0600080a3565b604051631e4fbdf760e01b815260006004820152602490fd5b600254600160401b8110156126d25761236a8160016126ce9301600255612568565b9055565b634e487b7160e01b600052604160045260246000fd5b60ff6000805160206131658339815191525460401c161561270557565b604051631afcd79f60e31b8152600490fd5b1561271e57565b60405162461bcd60e51b8152602060048201526024808201527f526f6c6c757056313a205a4b20766572696669657220646f6573206e6f7420656044820152631e1a5cdd60e21b6064820152608490fd5b600019811461277e5760010190565b634e487b7160e01b600052601160045260246000fd5b9190820391821161277e57565b606081019081106001600160401b038211176126d257604052565b604081019081106001600160401b038211176126d257604052565b608081019081106001600160401b038211176126d257604052565b60c081019081106001600160401b038211176126d257604052565b90601f801991011681019081106001600160401b038211176126d257604052565b650526f6c6c75760d41b6020604051612846816127bc565b600681520152603160f81b602060405161285f816127bc565b60018152015260405160208101907f8b73c3c69bb8fe3d512ecc4cf759cc79239f7b179b0ffacaa9a75d522b39400f82527fc82a8a13fc2fdda879509bc5c45bfffe0508f437994e87b6b3cb003a4d486c1960408201527fc89efdaa54c0f20c7adf612882df0950f5a951637e0307cdcb4c672f298b8bc660608201524660808201523060a082015260a081526128f5816127f2565b51902090565b919081101561259f5760051b0190565b90816020910312612505575180151581036125055790565b9261292f8484846128fb565b358061294757505050506001810180911161277e5790565b60028103612b0a5750506001830180841161277e576129679083836128fb565b35906002840180851161277e5761297f9084836128fb565b3592600385019081861161277e57612996926128fb565b359060009282845260209160068352604092826001858820015403612ac75784865260068152818487205403612a85578486526006815260ff6002858820015416612a425784865260068152838620600201805460ff1916600117905583519283528201527f948ecd827e77afeeebdc95f4d34a294c53d7e28501dcd56c8d89e88e61b53a509190a260048201809211612a2e575090565b634e487b7160e01b81526011600452602490fd5b60649084519062461bcd60e51b82526004820152601c60248201527f526f6c6c757056313a204d696e7420616c7265616479207370656e74000000006044820152fd5b60649084519062461bcd60e51b825280600483015260248201527f526f6c6c757056313a204d696e74206e6f7465206b696e6420696e76616c69646044820152fd5b60649084519062461bcd60e51b82526004820152601c60248201527f526f6c6c757056313a204d696e742076616c756520696e76616c6964000000006044820152fd5b909290600303612bde576001840180851161277e57612b2a9082846128fb565b35916002850180861161277e57612b429083836128fb565b35916003860180871161277e57612b5a9082846128fb565b35916004870180881161277e576001600160a01b03928392612b7d9291906128fb565b351690612b9e6000968688526008602052858360408a205416978587612c23565b86526007602052604086205416908115612bcd5750612bbc93612c5c565b505b60058201809211612a2e575090565b9050612bd893612c5c565b50612bbe565b60405162461bcd60e51b815260206004820152601e60248201527f526f6c6c757056313a20496e76616c6964206d657373616765206b696e6400006044820152606490fd5b9391929092604051936020850195865260018060a01b031660408501526060840152608083015260a082015260a081526128f5816127f2565b919092612c6a908484612cf0565b6040805160008152821515602082015291946001600160a01b039081169416917f25bab1ec4b6635a8e0740834e52ce1aee362e9c38447738aa7b75b7e06275b079190a490565b3d15612ceb573d906001600160401b0382116126d25760405191612cdf601f8201601f19166020018461280d565b82523d6000602084013e565b606090565b6000929183809360405190602082019363a9059cbb60e01b855260018060a01b03166024830152604482015260448152612d29816127d7565b51925af1612d35612cb1565b9015612d6d5780519081612d4b575b5050600190565b602080612d5c93830101910161290b565b15612d68573880612d44565b600090565b50600090565b15612d7a57565b60405162461bcd60e51b815260206004820152602760248201527f526f6c6c757056313a20546f6b656e206e6f7420666f756e6420666f72206e6f6044820152661d19481ada5b9960ca1b6064820152608490fd5b6040516323b872dd60e01b602082019081526001600160a01b0393841660248301529383166044820152606480820195909552938452909160a08401906001600160401b038211858310176126d257612e419360009384936040521694519082865af1612e3a612cb1565b9083612e8a565b8051908115159182612e6f575b5050612e575750565b60249060405190635274afe760e01b82526004820152fd5b612e82925060208091830101910161290b565b153880612e4e565b90612eb15750805115612e9f57805190602001fd5b604051630a12f52160e11b8152600490fd5b81511580612ee4575b612ec2575090565b604051639996b31560e01b81526001600160a01b039091166004820152602490fd5b50803b15612eba565b91907f7fffffffffffffffffffffffffffffff5d576e7357a4501ddfe92f46681b20a08411612f7157926020929160ff608095604051948552168484015260408301526060820152600092839182805260015afa15612f655780516001600160a01b03811615612f5c57918190565b50809160019190565b604051903d90823e3d90fd5b50505060009160039190565b6004811015612fec5780612f8f575050565b60018103612fa95760405163f645eedf60e01b8152600490fd5b60028103612fca5760405163fce698f760e01b815260048101839052602490fd5b600314612fd45750565b602490604051906335e2f38360e21b82526004820152fd5b634e487b7160e01b600052602160045260246000fd5b6040519061300f826127bc565b60048252635061797960e01b6020830152565b9060289291600160c21b81526130428251809360206008850191016124cc565b019060088201520190565b6040805160208101928352908101839052606080820194909452928352601f199261307960808261280d565b5190206001820180921161277e5761023e916128f59160405190602082019283526040820152604081526130ac816127a1565b519020926130b8613002565b93604051938491602083019687613022565b6001600160401b0381116126d25760051b60200190565b600a5481101561259f57600390600a600052027fc65a7bb8d6351c1cf70c95a316cc6a92839c986682d98bc35f958f4883f9d2a80190600090565b805182101561259f5760209160051b010190565b356001600160a01b0381168103612505579056fe9016d09d72d40fdae2fd8ceac6b6234c7706214fd39c1cd1e609a0528c199300f0c57e16840df040f15088dc2f81fe391c3923bec73e23a9662efc9c229c6a00a26469706673582212203eb0496ba427d487b24a59db6bf5d48fb754858d11535c24dff616fbe36d2b9864736f6c63430008140033",
  "linkReferences": {},
  "deployedLinkReferences": {}
}