{
  "_format": "hh-sol-artifact-1",
  "contractName": "Util",
  "sourceName": "contracts/rollup2/base/Util.sol",
  "abi": [
    {
      "inputs": [
        {
          "internalType": "bytes32",
          "name": "data",
          "type": "bytes32"
        },
        {
          "internalType": "uint8",
          "name": "offset",
          "type": "uint8"
        }
      ],
      "name": "get10BytesByOffset",
      "outputs": [
        {
          "internalType": "bytes10",
          "name": "result",
          "type": "bytes10"
        }
      ],
      "stateMutability": "pure",
      "type": "function"
    },
    {
      "inputs": [
        {
          "internalType": "bytes32",
          "name": "data",
          "type": "bytes32"
        },
        {
          "internalType": "uint8",
          "name": "offset",
          "type": "uint8"
        }
      ],
      "name": "get20BytesByOffset",
      "outputs": [
        {
          "internalType": "bytes20",
          "name": "result",
          "type": "bytes20"
        }
      ],
      "stateMutability": "pure",
      "type": "function"
    },
    {
      "inputs": [
        {
          "internalType": "bytes32",
          "name": "data",
          "type": "bytes32"
        },
        {
          "internalType": "uint8",
          "name": "offset",
          "type": "uint8"
        }
      ],
      "name": "get8BytesByOffset",
      "outputs": [
        {
          "internalType": "bytes8",
          "name": "result",
          "type": "bytes8"
        }
      ],
      "stateMutability": "pure",
      "type": "function"
    }
  ],
  "bytecode": "0x6080806040523461001a5761017a9081610020823930815050f35b600080fdfe6080604052600436101561001257600080fd5b60003560e01c8063336de30e146100ab57806379f02bc3146100745763b758d4a81461003d57600080fd5b6020610048366100e0565b610058601660ff83161115610105565b6040519169ffffffffffffffffffff60b01b9160031b1c168152f35b602061007f366100e0565b61008f600c60ff83161115610105565b604051916bffffffffffffffffffffffff199160031b1c168152f35b60206100b6366100e0565b6100c6601860ff83161115610105565b6040519167ffffffffffffffff60c01b9160031b1c168152f35b6040906003190112610100576004359060243560ff811681036101005790565b600080fd5b1561010c57565b60405162461bcd60e51b815260206004820152601060248201526f4f666673657420746f6f206c6172676560801b6044820152606490fdfea2646970667358221220a7aaf6a25c0342a3944b3f320f9cfba8c7e643a47a8350d08fea34c757d48dd664736f6c63430008140033",
  "linkReferences": {},
  "deployedLinkReferences": {}
}